:1000000000800020BD0100006988000021880000F8
:10001000218800002188000021880000218800003C
:1000200021880000218800002188000069880000E4
:1000300069880000218800003DA8000041A8000058
:1000400069880000698800006988000069880000EC
:1000500069880000698800006988000069880000DC
:1000600069880000698800006988000069880000CC
:1000700069880000698800006988000069880000BC
:1000800069880000698800006988000069880000AC
:10009000698800006988000069880000698800009C
:1000A0008582000091820000698800006988000054
:1000B000698800006988000069880000698800007C
:1000C000698800006988000069880000698800006C
:1000D000698800006988000069880000698800005C
:1000E000698800006988000069880000698800004C
:1000F000698800006988000069880000698800003C
:10010000698800006988000069880000698800002B
:10011000698800006988000069880000698800001B
:10012000698800006988000069880000698800000B
:1001300069880000698800006988000069880000FB
:1001400069880000698800006988000069880000EB
:1001500069880000698800006988000069880000DB
:1001600069880000858E00006988000069880000A9
:1001700069880000698800006988000069880000BB
:1001800069880000698800006988000069880000AB
:10019000698800006988000069880000698800009B
:1001A000698800006988000069880000698800008B
:1001B0006988000069880000F9A50000564B4CF2E0
:1001C000205210B51A804DF628121A8000BF00BFC9
:1001D00008F04EFB514B4FF010621A60504A9A6083
:1001E000504ADA60504A136813F4807304D14F49BF
:1001F0000B604FF4A85313604D4B1A78110703D5C9
:100200001A7842F008021A704A4B4B492A221A7097
:100210004A4A4B4B8B4204D252F8040F43F8040B6A
:10022000F8E7484B484900228B4202D243F8042B9E
:10023000FAE74649464A002352F8230041F82300D2
:1002400001336F2BF8D1434B434A802103F8011B44
:100250009342FBD1414B3D4A1A60414B8A221A70AE
:10026000A3F5805324225A70A0221A709A7992071B
:10027000FCD59A79D406FCD43A4A937903F00C035E
:10028000082B384BF9D103221A7140225A719A79FE
:100290009006FCD5334A9179324B4906FBD5324A58
:1002A000324911600221516020221A709A7902F0BD
:1002B0000C020C2AFAD12E4B2E4A1A602E4B2F4AD2
:1002C0001A6000225A60072243F8042C2C4AC3F813
:1002D0000C2D62B608F0A8FC144B1B68DA0705D594
:1002E000284808F005FC284B284A1A60284B1B7840
:1002F0005B0609D5244C254B22689A4204D121483B
:1003000008F0F6FB002323600CF028F808F0B6FA9A
:100310000AF01CFBFEE700BF0E20054030800440C1
:10032000823F04000100002B10D0034014D0034092
:1003300002D0074000E0074008CCFF1F3C1B010033
:1003400098BDFF1F08CCFF1F84F4FF1F00B2FF1FE2
:100350000000000000E400E05FE400E008ED00E0E1
:100360000050064000400640448004400000030165
:1003700004800440C010050014E000E0FF76010096
:100380000000202088AD6D601CE00340A5C3945A96
:1003900000F00740FFFFFFFFFFFFFFFFFFFFFFFF32
:1003A000FFFFFFFFFFFFFFFFFFFFFFFFFFFFFFFF5D
:1003B000FFFFFFFFFFFFFFFFFFFFFFFFFFFFFFFF4D
:1003C000FFFFFFFFFFFFFFFFFFFFFFFFFFFFFFFF3D
:1003D000FFFFFFFFFFFFFFFFFFFFFFFFFFFFFFFF2D
:1003E000FFFFFFFFFFFFFFFFFFFFFFFFFFFFFFFF1D
:1003F000FFFFFFFFFFFFFFFFFFFFFFFFFFFFFFFF0D
:10040000FFFFFFFFFFFFFFFFFFFFFFFFDEF9FFFF23
:1004100010B5054C237833B9044B13B10448AFF33E
:1004200000800123237010BD08CCFF1F00000000D6
:10043000381B0100084B10B51BB108490848AFF341
:1004400000800848036803B910BD074B002BFBD0A0
:10045000BDE81040184700BF000000000CCCFF1F93
:10046000381B010008CCFF1F00000000002070476F
:10047000002070472DE9F0410D460169044680686F
:10048000CB1A1746236148BB002D3ED06368BB4A98
:100490005B018933B3F59C7F00F2AF8032F9130022
:1004A0000028C0F2AA800BF061FBB5490BF0B2FB4B
:1004B0000BF076FD217B20610123A36000293CD055
:1004C000667B002188462173002E3BD0A668023E41
:1004D00018BF012666734046BDE8F081012855D05B
:1004E000022800F0C980032800F08A80042800F068
:1004F0000681667B4FF00008237B002B4FD0A1685C
:1005000011F1FF3118BF012119E09AB163689B4ACC
:100510005B018A33B3F59C7F40F2CE80B2F91401BF
:100520000BF024FB96490BF075FB0BF039FD022311
:100530002061A360217B002956D1667B8846217308
:10054000002EC3D1002FC5D0A368012B78D0032B78
:10055000C0D163682569894A5B018B33B3F59C7F01
:1005600040F2A480B2F916010BF000FB84490BF0B5
:1005700051FB0BF015FD00EBD070B5EB600FCCBF5D
:100580000126002666734046BDE8F081002B40F34B
:10059000DE80237B667B4FF00108002BAFD1002D5E
:1005A0004CD0A368022B40F08D8063682569734AA4
:1005B0005B018A33B3F59C7F00F2C38032F91300EC
:1005C0000028C0F2BE800BF0D1FA6D490BF022FB7F
:1005D0000BF0E6FC6B4B83FB0023A3EBE0718D4239
:1005E000ACBF00210121AAE7A168667B11F1FF31B0
:1005F00018BF01214FF00008A1E7B2F9120152E73C
:10060000002B3FF776AF667B002E00F0C880636852
:100610005A4A5B018A33B3F59C7F40F2C780B2F936
:1006200014010BF0A3FA56490BF0F4FA0BF0B8FCE6
:1006300002232061A3604FF000085DE729467EE7B2
:10064000636825694D4A5B018933B3F59C7F73D993
:10065000B2F912010BF08AFA49490BF0DBFA0BF000
:100660009FFC00EBD070B5EB600FB4BF01260026F5
:1006700066734046BDE8F081002B8ADC63683F4A20
:100680005B018B33B3F59C7F40F28380B2F9160196
:100690000BF06CFA3A490BF0BDFA0BF081FC042325
:1006A0002061A360667B4FF0010825E732F9130053
:1006B0000028BFF659AF55E732F913000028BFF6FE
:1006C0002FAF2BE7042B7CD1636825692B4A5B0194
:1006D0008B33B3F59C7F37D832F91300002833DB16
:1006E0000BF044FA26490BF095FA0BF059FC00EB9D
:1006F000D070B5EB600FCCBF012100211FE7002BAC
:100700003FF7F7AE237B002B4CD063681B4A5B019D
:100710008933B3F59C7F4FD9B2F912010BF026FA59
:1007200017490BF077FA0BF03BFC01230021206105
:10073000A3608846667B02E732F91300002889DA55
:1007400086E7B2F914013EE7B2F91601C8E763681B
:100750000A4A5B018B33B3F59C7F15D9B2F91601B8
:100760000BF004FA06490BF055FA0BF019FC0323C1
:100770002061A360667B4FF00108BDE66CDCFF1FC3
:10078000797830425655555532F913000028E7DA8A
:10079000E4E732F913000028BFF67AAF76E7A660E7
:1007A000B046A9E6A3609846667BF8E632F91300E6
:1007B0000028BFF636AF32E732F913000028ADDA71
:1007C000AAE70021BBE600BF2DE9F04F454B464D9F
:1007D000464A18682E6A1368454C464FDFF8488130
:1007E000DFF848C155FA86F183F40033C3F3404380
:1007F00081F828301268216A3F4B54FA81FE82F456
:100800008032C2F300428EF828203A68D3F8209054
:10081000DFF81CE1394F01362E6202F0010253FA73
:1008200089F582F0010285F82820354ABEF81A5071
:100830001268344E82F4805B09F101021A62D8F822
:1008400020307A8B58FA83F90133C8F8203005F14B
:100850000108754401F1010ACBF30031C4F820A06E
:1008600089F82810BCF81A40297F274D738B29700E
:10087000651CEDB2ACF81A50BD186444013295F80D
:100880001CC0247FF5180133D2B2DBB25FFA88F8BE
:10089000AEF81A807A837383DFF898E01B4A1C4B0A
:1008A0002D7F8EF8004082F800C01D7081B1194B79
:1008B0004FF400521A608CB9174B80221A60094B12
:1008C000164A196813680B441B1A1360BDE8F08FB1
:1008D000134B4FF400521A60002CEDD0114B8022C4
:1008E0001A60ECE7041000E0DCDFFF1F50F00F405F
:1008F00030D1FF1FD0F00F4000D5FF1F78CFFF1F72
:1009000010F00F40CCD3FF1FD0D6FF1FF0DBFF1F2E
:1009100094CCFF1F04F00F40C8F00F40ACCCFF1F79
:1009200008F00F40C4F00F40E0E6FF1F14CEFF1F99
:100930005CD2FF1F58D2FF1F70B5044684B010462A
:100940000D460BF00FF915490BF064F9144B0646F0
:1009500018680BF007F9014630460BF00FFA0AF061
:100960001FFDCDE9020128460BF0FCF80B490BF006
:1009700051F90C4B054618680BF0F4F8014628466F
:100980000BF0FCF90AF00CFD2246CDE90001064906
:10099000064809F08BFF04B070BD00BF0000C842DC
:1009A0002CDCFF1FECDBFF1F080301009CC0FF1FB6
:1009B0002DE9F043844EB6F91850002D87B0C0F2EF
:1009C000A5807319814F93F85844640104F18B0397
:1009D000B3F59C7F40F3DC80B7F916010BF0C6F845
:1009E0007B490BF017F90BF0DBFA0BF0BFF87949F4
:1009F0000BF010F978490BF0C1F97319804693F8A0
:100A00005844640104F18C03B3F59C7F40F3AA8041
:100A1000B7F918010BF0AAF86D490BF0FBF80BF0D1
:100A2000BFFA0BF0A3F86B490BF0F4F835446A49B0
:100A30000BF0A4F995F85844814664018D34B4F55F
:100A40009C7F40F38980B7F91A010BF08FF8604959
:100A50000BF0E0F80BF0A4FA0BF088F85D490BF00E
:100A6000D9F85D490BF08AF98023044600935B496D
:100A70005B4853A3D3E9002309F018FFB6F91830F7
:100A8000514A002BA8BF9B182046ACBF93F858547E
:100A900000250AF085FCCDE9040148460AF080FCF7
:100AA000CDE9020140460AF07BFC2A46CDE900016F
:100AB0004C494B4809F0FAFE4B4A4C4B12681B68F4
:100AC0000092002201924A49454809F0EFFE494B45
:100AD000494A198812884948FFF72EFF484B494A6E
:100AE000196812684848FFF727FF484A484B1288A0
:100AF0001B88484900923A48474A09F0D7FE4749BF
:100B0000374807B0BDE8F04309F0D0BE2F4FB7F922
:100B100016010BF02BF82E490BF07CF80BF040FA85
:100B20000BF024F82B490BF075F82B490BF026F944
:100B30008046B7F918010BF019F825490BF06AF84F
:100B40000BF02EFA0BF012F822490BF063F8224951
:100B50000BF014F98D24814637F914000028BFF6F4
:100B600074AF70E737F913000028FFF651AF0AF0B1
:100B7000FDFF17490BF04EF80BF012FA0AF0F6FFE2
:100B800014490BF047F814490BF0F8F8814655E783
:100B900037F913000028FFF61FAF0AF0E7FF0C49F2
:100BA0000BF038F80BF0FCF90AF0E0FF09490BF004
:100BB00031F809490BF0E2F8804623E7AFF30080F3
:100BC000000000C0B48AE5400CE9FF1F6CDCFF1F89
:100BD0007978304200007A44A6552C472003010062
:100BE0009CC0FF1F40030100E0E5FF1F08E9FF1F55
:100BF0006C030100A2F2FF1F9CF2FF1F880301009B
:100C0000D8CCFF1F84E8FF1F9003010078F2FF1F7C
:100C1000A0F2FF1F9C03010094030100A00A010041
:100C20000B4610B50749044618460AF0F3FF06497B
:100C30000AF0E8FE0BF0DAF901462046BDE8104064
:100C400005F058BB00000143EE7CFF3E19B10129BD
:100C500008D000207047C28842F0040292B22421DA
:100C600005F0E4B9C288242122F0040205F0DEB9BF
:100C700038B50A4D030603F0FE432A68090443F41D
:100C80001043044643F0090301F4FE001843013207
:100C90002A6008F045FF84F0010038BD08E9FF1F15
:100CA00010B5044609F052FC204610BDF0B41148BE
:100CB000114F124E124D134C134900234FF4803242
:100CC000BB61FB617B623A62B361F3617362326262
:100CD0002B626B62AA61EA6123626362A261E261D4
:100CE000036243628261C2610B624B628A61CA61C4
:100CF000F0BC704780D3FF1FE4E5FF1FDCCCFF1F73
:100D00001CE6FF1F24CCFF1FF4DBFF1F2DE9F84F6B
:100D10000D46C168044616469846092900F25D81D1
:100D2000DFE811F04F006A0071007800AD00E200CA
:100D300016013A0151010A004368D0F810A0C64FCD
:100D40004FEA431909F18C03B3F59C7F00F25881F7
:100D500037F913000028C0F253810AF007FFBF499A
:100D60000AF058FF0BF01CF909F18B09B9F59C7FCB
:100D7000834640F25381B7F916010AF0F7FEB749EE
:100D80000AF048FF0BF00CF9C0EB0B008245C0F2F3
:100D90003F81227A00232361002A00F0778101231A
:100DA000617AE36052EA050314BF0122002251EA8E
:100DB000060314BF01230023227263720020BDE8E2
:100DC000F88F4368A44F5B018433B3F59C7F00F236
:100DD0000B8137F91330002BC0F20681022B00F093
:100DE0005181002D40F0F480002E00F0F3800223AA
:100DF000E3600020BDE8F88F00200323E360607209
:100E00002072BDE8F88F00200423E3606072207236
:100E1000BDE8F88FD0F80490D0F810A08E4F4FEABC
:100E200049138933B3F59C7F00F2E78037F913004B
:100E30000028C0F2E2800AF099FE88490AF0EAFE32
:100E40000BF0AEF88245C0F2F4800020052320614B
:100E5000E360002D40F00481002E40F001814FEA54
:100E6000491909F18409B9F59C7F40F20581B7F968
:100E70000831002B40F0CA806372BDE8F88FD0F8CB
:100E80000490D0F810A0744F4FEA49138A33B3F599
:100E90009C7F00F2AF8037F913000028C0F2AA80CF
:100EA0000AF064FE6D490AF0B5FE0BF079F8824550
:100EB000C0F2BA80002006232061E360002D40F0DC
:100EC000C480002E40F0C1804FEA491909F184091D
:100ED000B9F59C7F40F2CA80B7F90831002B40F089
:100EE00095802372BDE8F88F4368D0F810A05A4F60
:100EF0004FEA431909F18B03B3F59C7F77D837F993
:100F00001300002873DB0AF031FE54490AF082FE18
:100F10000BF046F88245C0F291800023236155B959
:100F200009F18409B9F59C7F40F2BE80B7F9083118
:100F3000022B00F0B080637A002B00F0B280022315
:100F4000E360003618BF012666720020BDE8F88F06
:100F500043680669404F5B018B33B3F59C7F40D8F3
:100F600037F9130000283CDB0AF000FE3B490AF089
:100F700051FE0BF015F8864264DB237A00222261D1
:100F8000002B00F08B800123E360003518BF0125A2
:100F900025720020BDE8F88FD5B9002A7FF427AF6D
:100FA00063682D4F5B018733B3F59C7F2BD837F9EE
:100FB0001330002B27DB83B10020092360722072DD
:100FC000E360BDE8F88F002A7FF411AF002DE7D071
:100FD0000123E3600020BDE8F88F0020E060BDE859
:100FE000F88FB7F91601BFE7B7F90831F6E6B7F998
:100FF000160188E7B7F9140152E7B7F912011AE7A9
:10100000B7F91801A9E6B7F90E31D4E7BDE8F88FB2
:1010100008EB0A03227A617A2361C3E637F91900E3
:101020000028BFF6AAAEA6E608EB0A03236101205A
:1010300044E70AEB0803236101200AE708EB0A03EF
:1010400023617EE7464426619FE7237A2B4314BF42
:101050000123002345E700BF6CDCFF1F7978304295
:10106000637A334314BF0123002305E737F91930AE
:10107000002BBFF633AF2FE737F91930002BBFF63F
:10108000F8AEF4E6CEB9002DA4D0A1E7617A89B11B
:101090000223E36086E60023E36052E70823E3606F
:1010A00073E70723E3604CE737F91930002BBFF6ED
:1010B0003FAF3BE7E1600A4674E60120BDE8F88FE8
:1010C00030B418300A1D00254FF4803411F8013B6C
:1010D000302B08D0312B08D10460914200F104007C
:1010E000F4D130BC70470560F7E70A46024803496F
:1010F00030BC09F0DBBB00BF9CC0FF1FAC0301008C
:1011000070B51C4615460E4602461549154809F0AD
:10111000CDFB22786C2A15D007D9722A18D1611C10
:101120002846BDE87040FFF7CBBF303A012A0FD800
:1011300030462146FFF7C4FF21462846BDE87040EF
:10114000FFF7BEBF611C3046BDE87040FFF7B8BF77
:10115000224605490348BDE8704009F0A7BB00BF1F
:10116000CC0301009CC0FF1FAC03010010B5044676
:1011700002461549154809F099FB2378692B1AD0C6
:10118000752B10D0682B06D0224611490F48BDE8B8
:10119000104009F08BBB631C0E4A0F490F48BDE895
:1011A0001040FFF7ADBF631C0D4A0E490E48BDE865
:1011B0001040FFF7A5BF631C0C4A0D490D48BDE860
:1011C0001040FFF79DBF00BFE40301009CC0FF1F5C
:1011D000AC030100F4DBFF1F80D3FF1F00040100FC
:1011E000DCCCFF1FE4E5FF1FF803010024CCFF1F48
:1011F0001CE6FF1FFC0301002DE9F04F55000E46D1
:101200006DB2417B174683B00446994645EA060A0B
:1012100002224FF0030B4FF001080529FDD8DFE84B
:1012200001F07464443A1E03207BA16840EA0A007E
:10123000C9EB010140B25FFA80FE002984F80CE09E
:10124000A16024DC0EF0040303F0FF01002B6DD03D
:101250002EF0050E84F80CE062730221DDE7A3682E
:10126000C9EB0303A360002B63684FEA431375DDEA
:101270008433B3F59C7F48495DD831F91330002B96
:1012800059DB012B03D1237B35431D432573A07B01
:1012900003B0BDE8F08F237BA07B23F0030304227F
:1012A0002373627303B0BDE8F08F217B01F002016C
:1012B00001F0FF0000296DD0616849018A31B1F564
:1012C0009C7F2CD93449B1F9140101920AF04EFCEB
:1012D00032490AF09FFC0AF063FE84F80DB0A0606A
:1012E00084F80E800321019A97E7217BCB07B3D5C1
:1012F00060684001893041F00401B0F59C7F2173A2
:1013000025D92549B1F91201DFE7217B06B9AFB133
:101310004AEA0101217384F80D8001217DE71E4B0B
:1013200033F9110000281946CFDACCE720F002008B
:101330002073617371E7B1F90831A2E78807A6D07D
:101340004AEA0101217384F80D80012165E7124BFF
:1013500033F9100000281946B7DAD3E78B3300229F
:10136000B3F59C7FA2730C490FD9B1F916010AF0AD
:10137000FDFB0A490AF04EFC0AF012FE0523A060AC
:101380000020637303B0BDE8F08F31F9130000282B
:10139000EDDAEAE760737AE76CDCFF1F79783042B8
:1013A0002DE9F04F440104F17803B3F59C7F85B03B
:1013B00081469E4D40F39880B5F9F0000AF0D6FBC7
:1013C00004F17903B3F59C7F834640F38780B5F938
:1013D000F2000AF0CBFB04F17A03B3F59C7F0646DA
:1013E00076DDB5F9F430039304F17B03B3F59C7F0C
:1013F00069DDB5F9F6000AF0B9FB04F17C03B3F539
:101400009C7F07465ADDB5F9F8000AF0AFFB884922
:10141000824658460AF0FEFB8549804630460AF06F
:10142000EFFA84490AF0AAFC8349064638460AF0D6
:10143000A5FC4146074681480AF0A0FC0146384613
:101440000AF09CFC414607467D480AF097FC0AF0EA
:10145000CDFD0AF087FB314680467A480AF0D0FA83
:1014600039460AF0CDFA41460AF0D4FB0AF098FD5D
:101470003146029074480AF0C3FA39460AF0C0FABD
:1014800041460AF0C7FB0AF08BFD704901905046B7
:101490000AF07CFD20B1514658460AF077FD48BB62
:1014A0006B4B4FF08042B9F1050F1A6040D9694B80
:1014B0004FF080421A6005B0BDE8F08F35F9130097
:1014C0000028A2DA9FE735F91300002893DA90E7A5
:1014D00035F913300393002B86DA82E735F91300D0
:1014E0000028BFF676AF72E735F913000028BFF683
:1014F00065AF61E7584958460AF08CFB51460AF03F
:101500003DFC56490AF07CFA824602980AF02EFB0E
:1015100051460AF07FFB0AF043FD029001980AF061
:1015200025FB51460AF076FB0AF03AFD0190B7E739
:1015300003980AF01BFB3E490AF062FA3D490AF0A3
:101540001DFC04F18909B9F59C7F824617DC4FF038
:101550007E510AF057FA31460AF054FA39460AF039
:1015600051FA41460AF056FB0AF01AFD0AF0FEFA5B
:101570003B490AF003FC0AF013FD25F8190004F1B9
:101580008A09B9F59C7F17DC51462E480AF038FAD3
:1015900031460AF037FA39460AF034FA41460AF081
:1015A00039FB0AF0FDFC0AF0E1FA2D490AF0E6FBEE
:1015B0000AF0F6FC25F8190004F18B09B9F59C7FB7
:1015C00015DC31464FF07E500AF01AFA39460AF01F
:1015D00017FA41460AF01EFB0AF0E2FC0AF0C6FACE
:1015E0001F490AF0CBFB0AF0DBFC25F8190004F1D7
:1015F0008C06B6F59C7F09DC02980AF0B7FA184908
:101600000AF0BCFB0AF0CCFC25F816008D34B4F5CA
:101610009C7F3FF74CAF01980AF0A8FA10490AF0F6
:10162000ADFB0AF0BDFC25F8140040E76CDCFF1FA1
:10163000000048420000C8420000204100606A47A4
:101640004C90214A000040400000E0400000A040D3
:1016500088E100E008E100E0CA6B284094D7D03F61
:101660007978304230B540F22F1383B002460C46F1
:10167000984200F21282DFE810F03E010A02FC01FB
:10168000F001E301D601CE0182016F0169015F0122
:10169000A20191011002100210023001300130014C
:1016A000300130013001100253013001B601B301A5
:1016B000300130013001300110021002100210021E
:1016C000100210021002100210021002100210028A
:1016D000100210021002100210021002100210027A
:1016E000100210021002100210021002100210026A
:1016F000100210021002100210021002100210025A
:101700001002100210021002100210021002100249
:101710001002100210021002100210021002100239
:101720001002100210021002100210021002100229
:101730001002100210021002100210021002100219
:101740001002100210021002100210021002100209
:1017500010021002100210021002100210021002F9
:1017600010021002100210021002CB01CB01CB01BB
:10177000CB01CB01300130013001300130013001AB
:1017800030013001300130013001300130013001D1
:10179000300130013001300130011002100210021E
:1017A00010021002100210021002C501C501C5018D
:1017B000C501C50130013001300130013001300177
:1017C0003001300130013001300130013001300191
:1017D00030013001300130013001100210021002DE
:1017E00010021002100210021002C201C201C20156
:1017F000C201C2013001300130013001300130013D
:101800003001300130013001300130013001300150
:10181000300130013001300130011002100210029D
:1018200010021002100210021002C801C801C80103
:10183000C801C801300130013001300130013001F0
:101840003001300130013001300130013001300110
:10185000300130013001300130011002100210025D
:10186000100210021002100210023501350135017C
:1018700035013501300130013001300130013001D6
:1018800030013001300130013001300130013001D0
:10189000300130013001300130011002100210021D
:1018A000100210021002100210023501350135013C
:1018B0003501350130013001300130013001300196
:1018C0003001300130013001300130013001300190
:1018D00030013001300130013001854B23F81240D6
:1018E00003B030BD824B042023F8124003B0BDE8A2
:1018F0003040FFF755BD20460AF038F97D490AF01F
:101900003DFA7D490AF086F97C490AF07BF80AF035
:101910006DFB01467A4804F0EDFC754B1C80DFE757
:10192000734D784AB5F92E307749784824B200943F
:1019300008F0BCFFEC85D3E76D4B7148997C9C8225
:10194000E2B203B0BDE8304004F0B2BB684B6C4873
:101950001A7D5C82E1B2F4E7654B69489A7B1C8290
:101960000F2AE4B228BF0F220F2C28BF0F2444EA0D
:101970000212202103B0BDE8304004F057BB5C4B9D
:101980005F48197CDC810F29E4B20A4628BF0F2288
:101990000F2C28BF0F2442EA0412EAE72A215848F4
:1019A00004F002FB230203F4407320F440721A4354
:1019B0002A21534804F03AFB4D4B1C8390E72A211F
:1019C0004F4804F0F1FA230103F0700320F0700295
:1019D0001A432A214A4804F029FB454BDC827FE761
:1019E000434B9C867CE7424D494AB5F93230464923
:1019F000464824B2009408F059FF6C8670E73C4BCF
:101A0000022071E73A4B01206EE7394B03206BE768
:101A1000374B002068E7364D3948E2B224B2114610
:101A2000AC826C828DE7E2B20F2A314D344824B289
:101A300028BF0F2242EA021220212C82EC8199E772
:101A40002F48C288002C3BD042F4807292B22421ED
:101A500004F0ECFA264B1C8142E72948C2884CB3BB
:101A600042F0100292B2242104F0E0FA204BDC8014
:101A700036E72A21224804F097FA20F00302224395
:101A80002A211F4804F0D2FA194B9C8028E7ECB1B8
:101A9000012C24D0164B5C8022E7A0F12003572BA9
:101AA0007FF61BAF1B491948234603B0BDE8304001
:101AB00008F0FCBE22F01002242104F0B7FAD5E7AA
:101AC00022F48072242104F0B1FAC3E70C48C288E2
:101AD00042F0040292B2242104F0A8FADAE708489E
:101AE000C288242122F0040204F0A0FAD2E700BF49
:101AF0006CDCFF1F0000FE4200000143EE7CFF3E55
:101B000098D0FF1F04040100100401009CC0FF1FB7
:101B1000200401002C040100012800D07047262970
:101B200012D009D9622920D0632925D1D201134BC3
:101B300002F47E521A80704706291ED1D201104B42
:101B400002F47E521A80704770B40D4D0D4C2B88F4
:101B500020680A4E02F07F021A43431C2A80308814
:101B60002360114670BCFFF77DBD04490B8802F06D
:101B70007F021A430A80D1E77047704768D6FF1F7B
:101B80007CD3FF1FE0E5FF1F2DE9F041C668847A92
:101B900042EA4102D5B2F61A45EA0402002E457225
:101BA0008272C66003DD037A1846BDE8F081C37A0D
:101BB0000446062B41D8DFE803F04D6D0493B9DDF0
:101BC000440002F001021543E907827200F1B88077
:101BD000A80700F1F8806568B04F6D0105F1870333
:101BE000B3F59C7F40F22D81B7F90E3183B305F137
:101BF0008C03B3F59C7F40F23581B7F9180109F0E9
:101C0000B5FFA7490AF006F80AF0CAF98B35B5F511
:101C10009C7F804640F22081B7F9160100220523FF
:101C2000A272E37209F0A2FF9D4909F0F3FF0AF0E6
:101C3000B7F9C0EB08000644E660237A1846BDE811
:101C4000F0811543AF0700F1BE80EB0778D4002385
:101C5000E372F2E70023C3608372A80700F1D88023
:101C6000ED07EAD563688D4F5B018A33B3F59C7F3E
:101C700040F2FE80B7F91401012503232572E372B7
:101C800009F074FF864909F0C5FF0AF089F92B466F
:101C9000E06089E74368814F4FEA431808F18B03FE
:101CA000B3F59C7F40F2A380B7F9160109F05EFFFF
:101CB0007B4909F0AFFF0AF073F9002323724DB995
:101CC00008F18408B8F59C7F40F2AF80B7F908317D
:101CD00003B9A37202233044E372E060002363E798
:101CE00043686E4F4FEA431808F18B03B3F59C7FAE
:101CF00040F28380B7F9160109F038FF684909F00E
:101D000089FF0AF04DF9002323724DB908F18408C8
:101D1000B8F59C7F40F28F80B7F9083103B9A37200
:101D200004233044E372E06000233DE702F0020246
:101D3000D2B215438272AA0745D4E9077FF54BAFAB
:101D40006368564F5B018A33B3F59C7F5BD9B7F963
:101D500014010125002203232572A272E37209F007
:101D600005FF4F4909F056FF0AF01AF93044E060C8
:101D70002B4619E71543AB0725D4EA07E0D445689D
:101D8000464F6D0105F18803B3F59C7F76D9B7F90D
:101D90001031002B3FF45BAF05F18D03B3F59C7F51
:101DA00076D9B7F91A0109F0E1FE3D4909F032FF91
:101DB0000AF0F6F88C35B5F59C7F804663D9B7F903
:101DC000180106232DE76368344F5B018933B3F5AF
:101DD0009C7F07D9B7F91201012500232572E5720E
:101DE000A372BCE737F913000028F5DAF2E737F9F8
:101DF00013000028BFF65AAF56E737F91300002842
:101E0000BFF67AAF76E737F913000028A1DA9EE72C
:101E10006368224F5B018933B3F59C7F17D9B7F90B
:101E2000120101252572E5722AE737F91830002BD7
:101E3000BFF64EAF4AE737F91830002BBFF66EAF4A
:101E40006AE737F91330002BBFF6D0AECCE637F98E
:101E500013000028E5DAE2E737F915000028BFF69D
:101E6000DDAED9E637F913000028BFF6C8AEC4E6E8
:101E700037F913000028BFF6FFAEFBE637F9133041
:101E8000002B86DA83E737F91500002899DA96E700
:101E900037F91300002886DA83E700BF6CDCFF1FE8
:101EA00079783042002310B4104C41720261046012
:101EB0000372C36041B1194600E0026942F8231081
:101EC000427A01339A42F8DC094B1A680AB90BE0EE
:101ED0001A465369002BFBD1506100234361838074
:101EE000C380837210BC70471860F6E7B802010027
:101EF00074F2FF1F70B5174D174E2A680660002355
:101F00000446437203610372C3600AB920E01A46B3
:101F10005369002BFBD154610023104AA161636116
:101F2000A380E380A372226008F016FA606218B101
:101F300004308023A062A385002384F8203084F835
:101F4000213084F83F3084F83E30E361204670BD94
:101F50002860E1E774F2FF1FB802010018140100C5
:101F6000044AB2F91830002BA6BF9B1893F8580406
:101F7000002070470CE9FF1F2DE9F04702210120E6
:101F800006F0DCFD0221002006F0D8FD0221084603
:101F900006F0D4FD0221032006F0D0FD012104202B
:101FA00006F0CCFD0121042006F0B4FD012105203E
:101FB00006F0C4FD0121052006F0ACFD824B834EE6
:101FC0000024012503274FF005084FF0020A4FF0C7
:101FD000040983F8585483F85D5483F8655483F8F2
:101FE000665483F8624483F8634483F8644483F856
:101FF00059A483F85EA483F85A7483F85F7483F855
:102000005B9483F8609483F85C8483F86184FEF7C2
:102010004DFE28216E4808F06FF96E4804F064F90F
:1020200029463846FFF71EFB21462046FFF71AFBDC
:1020300021462846FFF716FB21465046FFF712FBC4
:10204000072329460C20F382FFF70CFB294648465C
:10205000FFF708FB41464046FFF704FB1D21062021
:10206000FFF700FB21463846FFF7FCFA20462821FF
:10207000FFF7F8FA41F690211020FFF7F3FA4FF23C
:1020800074511120FFF7EEFA4FF6F8011220FFF716
:10209000E9FA4FF60C611320FFF7E4FA4FF23671BC
:1020A0001420FFF7DFFA29461520FFF7DBFA214657
:1020B0001720FFF7D7FA4FF4FD511820FFF7D2FA97
:1020C00021461920FFF7CEFA29461A20FFF7CAFA4F
:1020D0004FF4FD511B20FFF7C5FA21461C20FFF7E6
:1020E000C1FA4FF4FD511D20FFF7BCFA32211E202A
:1020F000FFF7B8FA384806F13E022946234601E0C8
:1021000010F8011F22F8021F0133402BF8D11221D1
:102110007820FFF7A7FA32217920FFF7A3FA3221BE
:102120007A20FFF79FFA00217B20FFF79BFA00211E
:102130007C20FFF797FA4FF416718120FFF792FA8F
:1021400032217D20FFF78EFA32217E20FFF78AFAB6
:1021500000217F20FFF786FA00218020FFF782FA16
:1021600000218320FFF77EFA00218220FFF77AFA10
:1021700008218F20FFF776FA00218420FFF772FAFA
:1021800000218520FFF76EFA00218620FFF76AFA0A
:1021900002218E20FFF766FA07218F20FFF762FAEF
:1021A0000E4B4FF6FF7103F5A07223F8021F934206
:1021B000FBD103220A49172006F0DAFB094B0A4A31
:1021C0001A60BDE8F08700BF0CE9FF1F6CDCFF1F41
:1021D0000082FF1F98D0FF1F000B01009ADDFF1F38
:1021E000C907000058F2FF1F191B00002DE9F04736
:1021F000AA4C84B006F0A8FCA94A23681268C01A49
:10220000904223D306F0A0FCA64FA74A2060136893
:102210003D68A649A64EA748A74C5B1B9B090B60CF
:10222000126835683A60026821680027AD099A4251
:102230003760A24EA24F38BF1A46A94238BF29467E
:10224000B24202603D60216088BF03609D4EB6F9D6
:102250002A30002B40F09680002007F0C5FC044691
:102260000028F9D107F01AFF10B904B0BDE8F087D3
:1022700007F0D8FE0A28944F254607D0FE2D9CBFB4
:102280007855013507F0CEFE0A28F7D100237B559B
:102290003B783F3B382BE8D801A252F823F000BF2F
:1022A000492400006B2200006B2200006B2200001A
:1022B0006B2200006B2200006B2200006B220000EA
:1022C0006B2200006B2200006B2200006B220000DA
:1022D000572400006B2200006B2200006B220000DC
:1022E0006B2200006B2200006B220000152500000D
:1022F000952600006B2200006B2200006B2200007C
:10230000252800006B2200006B220000BD28000081
:102310006B2200006B2200006B2200006B22000089
:102320006B2200006B220000CB2B00003D2A000036
:102330006B220000612A0000872A00006B22000047
:102340006B22000011240000112400006B22000009
:10235000332B00006B2200006B2200006B22000078
:102360006B2200006B2200006B220000272400007B
:10237000292B00006B220000112400006B220000BA
:10238000912A00000120514C06F0CAFB23789842A4
:1023900004D018460021FEF76BFC207000204C4C46
:1023A00006F0BEFB2378984204D018460121FEF7C0
:1023B0005FFC20700220474C06F0B2FB2378984265
:1023C00004D018460221FEF753FC20700320424C33
:1023D00006F0A6FB2378984204D018460321FEF7A6
:1023E00047FC20703D4C3E4B20781B78834203D045
:1023F0000421FEF73DFC20703A4C3B4B20781B78C3
:1024000083423FF429AF0521FEF732FC207023E719
:102410002D48FEF7ABFE2C4A3449354804B0BDE8E0
:10242000F04708F043BA214F254D3248324A214E39
:10243000214C3249324B3F682D6800881288376042
:10244000256008801A8010E72E49294804B0BDE8AD
:10245000F04708F02BBA2C4D2C4AB5F918E092F849
:102460004194D2F8188092F84074294805EB0E0A7E
:10247000002510F8013B5BB1BEF1000FC0F274847F
:102480009AF85844002C00F02284444500F01F8440
:10249000002D3FF4EAAE82F84074E6E630E8FF1F14
:1024A00084BEFF1F88EDFF1F041000E0ECDBFF1F60
:1024B000ACCCFF1F2CDCFF1F84E8FF1FA0860100AF
:1024C000D8CCFF1F6CDCFF1F14CDFF1FDCE6FF1F05
:1024D0009CE8FF1F5CCCFF1F50D6FF1F5CCFFF1F87
:1024E000D0D6FF1F5DCCFF1F58D2FF1FE80A0100A6
:1024F0009CC0FF1FA2F2FF1FA0F2FF1F9CF2FF1F54
:1025000078F2FF1F100601000CE9FF1FA0D7FF1F84
:10251000500401003D4F3E483F683E4D07603E4835
:102520002D683E4C05603E482488DFF864E1048055
:102530003C493D483D4ABEF800E03D4BA0F800E074
:10254000B1F804E0A1F806E03A4EB2F804E0A2F8CF
:1025500006E0394FB3F804E0A3F806E0374DB6F8CB
:1025600004E0A6F806E0364CB7F804E03548A7F8D2
:1025700006E0AF883449EF80A788344AE78087882F
:10258000334BC7808F88334ECF809788324DD780AA
:102590009F88324CDF80B7883148F780B5F804E077
:1025A0003049A5F806E0B4F804E02F4AA4F806E0A4
:1025B000B0F804E02D4BA0F806E0B1F804E02C4F91
:1025C000A1F806E0B2F804E02A4EA2F806E0B3F85B
:1025D00004E0294D294CA3F806E0B7F804E02848A8
:1025E0002849294A294BA7F806E0B788F780B4F8AC
:1025F00004E0AE88EE8087888E88A4F806E095888F
:102600009C88C780CE80D580DC802EE6ECDBFF1F67
:102610002CDCFF1FD8CCFF1F84E8FF1FA2F2FF1F96
:102620009CF2FF1FC8E5FF1F78F2FF1F60CFFF1F5E
:10263000CCD0FF1FDCDFFF1F30D1FF1F00D5FF1FF5
:10264000E0E6FF1F04E1FF1FA0D7FF1FD4D6FF1F46
:102650000CD1FF1F0CE9FF1F7CE6FF1FA0E8FF1F46
:102660001CE6FF1F24CCFF1FE4E5FF1FDCCCFF1F8F
:1026700080D3FF1FF4DBFF1F5CD2FF1F14CEFF1FB0
:1026800078CFFF1FCCD3FF1FBCE6FF1F60CCFF1F1E
:10269000A0F2FF1FFEF78CF9AD4BAE48DA8899889F
:1026A000FEF74AF9AC4BAD48DA889988FEF744F951
:1026B000AB4BAC48DA889988FEF73EF9AA4808F097
:1026C000DDF8AA4BAA48DA889988FEF735F9A94BB4
:1026D000A948DA889988FEF72FF9A84BA848DA8824
:1026E0009988FEF729F9A04808F0C8F8A54BA64834
:1026F000DA889988FEF720F9A44BA548DA889988EA
:10270000FEF71AF9A34BA448DA889988FEF714F962
:10271000954808F0B3F8A14BA148DA889988FEF7EC
:102720000BF9A04BA048DA889988FEF705F99F4B72
:102730009F48DA889988FEF7FFF88B4808F09EF8E2
:102740009C4B9D48DA889988FEF7F6F89B4B9C488D
:10275000DA889988FEF7F0F89A4B9B48DA889988CE
:10276000FEF7EAF8804808F089F8984B9848DA882C
:102770009988FEF7E1F8974B9748DA889988FEF731
:10278000DBF8794808F07AF8944B9548DA8899880C
:10279000FEF7D2F8934B9448DA889988FEF7CCF884
:1027A000714808F06BF8914B9148DA889988FEF7E8
:1027B000C3F8904B9048DA889988FEF7BDF86A48CC
:1027C00008F05CF88D4B8E48DA889988FEF7B4F8EB
:1027D0008C4B8D48DA889988FEF7AEF8624808F08D
:1027E0004DF88A4B8A48DA889988FEF7A5F8894B14
:1027F0008948DA889988FEF79FF85B4808F03EF828
:10280000864B8748DA889988FEF796F8854B864884
:10281000DA889988FEF790F8534804B0BDE8F0478D
:1028200008F02CB8674D5F4AB5F918E0D2F8188067
:1028300092F8407492F841947C4805EB0E0A00250A
:1028400010F8013B002B3FF423AEBEF1000FC0F2A5
:10285000BC829AF8584414B144457FF419AE07F18C
:10286000010CE14539463FF413AE002C40F0D18213
:10287000A3F16104192C40F26C82202B0FD0A3F13C
:102880000904012C40F2BE821B2B08D0A3F12104C5
:102890003F2CD5D85C1E36F91440012CD0D0BEF1A7
:1028A000000F04DB9AF858440CB1A045C8D111447C
:1028B0005FFA8CF781F840300125C1E75C4D5D4C33
:1028C00005F1FF078021002008F036F8C0B2A0F122
:1028D0006102A0F10903192ADBB2A0F121010FD98D
:1028E000172B24FA03F200F1FF3E40F222823F2927
:1028F000E8D8BEF59C7F03D836F91E30012BE1D015
:1029000005F8010FBD42DDD12E4D264AB5F918C09C
:10291000494892F841A4D2F8189092F840E4002473
:10292000654480F8FF4010F8013B5BB1BCF1000F3B
:10293000C0F2448295F85874002F00F097814F45FB
:1029400000F09481002C3FF490AC82F840E48CE4D9
:10295000C8E5FF1FC408010060CFFF1FCC080100BD
:10296000CCD0FF1FD40801009CC0FF1FBCE6FF1F96
:10297000DC08010060CCFF1FE408010070D7FF1FD6
:10298000EC080100DCDFFF1FF408010030D1FF1F5D
:10299000FC08010000D5FF1F04090100E0E6FF1F4D
:1029A0000C09010004E1FF1F14090100A0D7FF1F5B
:1029B0001C090100D4D6FF1F200901000CD1FF1F04
:1029C000280901000CE9FF1F300901007CE6FF1F08
:1029D00038090100A0E8FF1F440901001CE6FF1FA1
:1029E0005009010024CCFF1F5C090100E4E5FF1F32
:1029F00068090100DCCCFF1F7409010080D3FF1FB0
:102A000080090100F4DBFF1F8C0901005CD2FF1F6D
:102A10009809010014CEFF1FA009010078CFFF1F05
:102A2000A8090100CCD3FF1FB00901005004010028
:102A3000DBDEFF1F03008400DCDEFF1FB6F926008B
:102A4000B6F92410B6F92840B6F92230B6F920209C
:102A5000019000910294C849C84807F027FF04E498
:102A6000B6F93C40204609F081F8C54909F0D2F892
:102A700009F096FAC3490346C048224604B0BDE8AF
:102A8000F04707F013BF04B0BDE8F047FEF70EB9FA
:102A9000BD4DBE4AB5F918E092F8407492F84194E1
:102AA000D2F81880BA4805EB0E0A002510F8013B51
:102AB000002B3FF4EDACBEF1000FC0F277819AF825
:102AC000584414B144457FF4E3AC07F1010CCC4504
:102AD00039463FF4DDAC002C40F09681A3F161044F
:102AE000192C40F23381202B0FD0A3F10904012CC3
:102AF00040F28D811B2B08D0A3F121043F2CD5D8A7
:102B00005C1E36F91440012CD0D0BEF1000F04DB5E
:102B10009AF858440CB1A045C8D111445FFA8CF71B
:102B200081F840300125C1E704B0BDE8F047FDF76A
:102B30003FBF954D974AB5F918E092F8407492F866
:102B40004194D2F81880924805EB0E0A002510F83F
:102B5000013B002B3FF49CACBEF1000FC0F2FC80A7
:102B60009AF8584414B144457FF492AC07F1010C33
:102B7000CC4539463FF48CAC002C40F02E81A3F1BB
:102B80006104192C40F2DC80202B0FD0A3F1090442
:102B9000012C40F241811B2B08D0A3F121043F2CD2
:102BA000D5D85C1E36F91440012CD0D0BEF1000FF0
:102BB00004DB9AF858440CB1A045C8D111445FFA1F
:102BC0008CF781F840300125C1E76F4D724EB5F9A1
:102BD0001830B5F91C00B5F91A10002BA4BFEA187B
:102BE00092F85844B5F91E200292019022460091B5
:102BF00062486A4907F05AFE002416F8013F684906
:102C0000B07A72790092019022465C48013407F054
:102C10004DFE052CF1D105F50A7091C82E6A6B6A3C
:102C2000D5F83812D5F834220397F31A029401909C
:102C3000009152485B4907F039FED5F83C62D5F85F
:102C40004032D5F84404D5F85414D5F84C74D5F86E
:102C50004844D5F85024019000910397F31A029448
:102C60005149464807F022FEFFF7FFBA0EF101086E
:102C7000C24571463FF466AE002F40F0D480A3F108
:102C80006107192F5FD9202B11D0A3F10907012F5C
:102C900040F2CC801B2B0AD0A3F121073F2F3FF637
:102CA00042AE5F1E36F91770012F3FF43CAEBCF107
:102CB000000F05DB95F8587417B1B9457FF433AEB2
:102CC00011445FFA88FE81F8403001242BE607F1B9
:102CD000010CCC4539463FF4DBAB002C40F09E8024
:102CE000A3F16104192C28D9202B11D0A3F10904D8
:102CF000012C40F296801B2B0AD0A3F121043F2C1B
:102D00003FF6B7AB5C1E36F91440012C3FF4B1AB73
:102D1000BEF1000F05DB9AF8584414B1A0457FF4CA
:102D2000A8AB11445FFA8CF781F840300125FFF71A
:102D3000A0BBD3073FF5E4ADD9E5203BDBB2E7E725
:102D4000203BDBB232E7203BDBB2B0E7203BDBB21B
:102D5000DBE6203BDBB2A2E507F1010CCC453946AE
:102D60007FF40DAFFFF794BB07F1010CCC4539465A
:102D7000B6D1FFF78DBB00BFA40A01009CC0FF1FA6
:102D80002D2D8D40C80A01000CE9FF1F04E1FF1F33
:102D900015CDFF1FA0D7FF1F63EDFF1FBC0901006A
:102DA000F40901001C0A0100600A010007F1010C8E
:102DB000CC4539467FF492AEFFF76ABB0EF10108AD
:102DC000D04571467FF45BAFBCE507F1010CCC4503
:102DD00039467FF44DADFFF75BBB44453FF4CFAEC2
:102DE000002382F8413482F8403482F8213082F89E
:102DF0003F3082F83E30D361C2F84434C2F84834E0
:102E0000FFF733BA20234AE54445E9D166E620239B
:102E10007BE64445E4D12BE52023C7E64445DFD1DA
:102E20005EE7202374E74F45DAD128E720233EE709
:102E3000B04BB1491A68B14B2DE9F04F1960AF4959
:102E4000002383B04B720B610B72CB6012B900F0A0
:102E5000DCBE1A465369002BFBD1A84B5361A7482F
:102E6000A74B0360002444618480C480847207F00F
:102E700085FEA04BA0491A68A24B5C7219601C61C8
:102E80001C72DC609B4B12B900F0C3BE1A4653693A
:102E9000002BFBD19B4B53619A489B4B0360002452
:102EA00044618480C480847203F060FC914B974F2E
:102EB0001A68914B3B607C723C613C72FC608D4BAC
:102EC00012B900F0AABE1A465369002BFBD1576114
:102ED0000024DFF87C828E4BDFF878927C61102032
:102EE000BC80FC80BC723B608A4DDFF86CB2DFF8BE
:102EF0006CA2894E03F0CCFA224621464046FEF7EA
:102F0000D1FF224621464846C8F82040C8F81C4058
:102F1000A8F81840C8F82440C8F800A0FEF7C2FF7F
:102F2000224621462846C9F82040C9F81C40A9F885
:102F30001840C9F82440C9F800A0FEF7B3FF2246A4
:102F4000214658462C62EC612C836C62C5F800A0C7
:102F5000FEF7A8FF03217148CBF82040CBF81C40B6
:102F6000ABF81840CBF82440CBF800A0FEF7C2FF26
:102F700004216B48FEF7BEFF4FF0020E06F120025F
:102F80005D48347223462146F460306086F809E0DB
:102F90003261344600E0226942F82310727A5E48BA
:102FA00001339A42F7DC534B1A6812B900F038BE6D
:102FB0001A465369002BFBD15661DFF8A4A1594B87
:102FC000594A5A48336002230024CAF800905849ED
:102FD000DFF89091B3613363336433657366F262F3
:102FE000544B554AF0635046B3628AF80840F16486
:102FF0003266CAF804607461B480F480B47286F8F2
:10300000344086F8354086F8364086F8494086F8E0
:10301000484086F84A40746586F8584086F859401A
:1030200086F8684086F86940F466346734778AF831
:103030000940CAF80C408AF8104007F053FA3F4A9A
:103040003F49504608F042F84FF0010A484689F8D7
:10305000084089E86000C9F80C4089F8104089F8F8
:1030600009A007F03FFA4846344A3549DFF8F8909E
:10307000344D08F02BF8344B514603F1200218462A
:10308000FEF710FF304B3049304A5C774846BB238F
:103090008B610C770A60C9F80410C9F8007089F8D0
:1030A000084089F80940C9F80C4089F8104007F039
:1030B00019FA224A2249104F484608F007F805201D
:1030C00005F58D62234621462C72EC602F606872F4
:1030D0002A612C4600E0226942F823106A7A1948D6
:1030E00001339A42F7DC034B1A68002A3FD100F003
:1030F0009ABD00BF74F2FF1FB802010060CFFF1F2E
:10310000AC170100C8E5FF1F48150100CCD0FF1F18
:103110003C15010030D1FF1FD4D6FF1F04E1FF1F73
:10312000A0D7FF1F00140100C4020100D00201005B
:10313000DC02010000D7FF1FE802010074BEFF1F80
:10314000A10C00000CE9FF1F0CD1FF1F641301004C
:1031500000D5FF1FDCDFFF1FE0E6FF1F0C1401009E
:103160006CD6FF1F80CCFF1F94D6FF1F1A465369F1
:10317000002BFBD15561C34FC34BC44901930024BD
:1031800038464FF6FF726C61AC80EC80AC722C62FA
:103190006C62C5F83842C5F83442C5F83042C5F80B
:1031A0002C42C5F82842C5F83C42C5F84042C5F853
:1031B0005444C5F85044C5F84C44C5F84844C5F8D3
:1031C0004444C7F800803C727C72FC603C747D60B3
:1031D0006C83AC83EC8329602A8307F083F9AC4AC3
:1031E000AC49DFF800B3DFF80093DFF8008338461E
:1031F00007F06CFF019BA84F1C724FF0010A1846A4
:103200001E60DC601C745D6083F809A007F06AF939
:10321000019B9F4A9F49A14E184607F057FFA04BBC
:10322000CBF8003058464FF002038BF809308BF88A
:103230000840CBF80C408BF81040CBF8045007F056
:1032400051F99449924A584607F040FF954A964BE7
:10325000136010461472D460147455604FF003026A
:10326000427207F03FF98A4A8A498E48DFF880B2F5
:1032700007F02CFF8D4B89F80840484689E8280064
:103280004FF0040389F80930C9F80C4089F8104060
:1032900007F028F948467E4A7E49DFF8589207F041
:1032A00015FF834B514603F13C021846FEF7FAFD29
:1032B000804B03F13C0218467D4B5146DC611E6099
:1032C00083F818A0FEF7EEFD7A4B88F808404FF01F
:1032D000020240461E601A76DC61754BC8F8043065
:1032E00088F80940C8F80C4088F81040C8F8005029
:1032F00007F0F8F8664A67496F4E404607F0E6FE69
:103300006C4B7B6038467C72FC603C743D6087F897
:1033100008A007F0E7F838465D4A5E49DFF8D88133
:1033200007F0D4FE654B042103F128021846FEF78E
:10333000B9FD634B03F128021846604B4FF4803708
:1033400004211E609F61DF611F625F62FEF7AAFDBC
:103350005C4B03F128021846594B04211E609F6103
:10336000DF611F625F62FEF79DFD574B03F128028C
:103370001846544B04211E609F61DF611F625F622B
:10338000FEF790FD514B03F1280218464E4B0421E5
:103390001E609F61DF611F625F62FEF783FD4B4B22
:1033A0000BF12802042158461E609F61DF611F62F5
:1033B0005F62FEF777FD404BCBF80030414BC8F819
:1033C00004304046424B434EC8F80030CBF81870EA
:1033D000CBF81C70CBF82070CBF8247088F808402C
:1033E00088F80940C8F80C4088F8104007F07AF8CF
:1033F000274A2849384F404607F068FE324B736031
:103400003046334B33607472F460347486F808A02D
:1034100007F068F81E4A1F49DFF8E080304607F0E1
:1034200055FE264BC9F8043048462C4BC9F80030ED
:1034300089F8084089F80940C9F80C4089F810401B
:1034400007F050F8124A1349254E484607F03EFE51
:103450001B4BC8F804304046204BC8F8003088F8B1
:103460000940C8F80C4088F8104088F808A007F018
:1034700039F8074A0749DFF88890404607F026FEEA
:1034800040E000BF64E5FF1F50E5FF1F5813010037
:1034900074BEFF1FA10C0000F4E8FF1F30150100EF
:1034A00004E1FF1F8CE5FF1FA0D7FF1F0CD1FF1FFA
:1034B0007CE6FF1FA0E8FF1F541501001CE6FF1F5C
:1034C00024CCFF1FE4E5FF1FDCCCFF1F80D3FF1FD0
:1034D000C8E5FF1FECD4FF1F08E8FF1F60CFFF1FE8
:1034E00080D6FF1F78E5FF1FA0E5FF1FE0E8FF1F64
:1034F000F4DBFF1F30DCFF1F98CCFF1F34E8FF1FF9
:103500005CE8FF1FC34B7B603846C34B3B603C729B
:103510007C72FC603C7406F0E5FFC04AC049DFF8ED
:103520005083384607F0D2FDBB4B33603046C6F8B7
:1035300004B07472F460347486F808A006F0D2FF08
:10354000B64AB749B74F304607F0C0FDB64BC8F88A
:1035500000304046B54BC8F8043088F80840C8F839
:103560000C4088F8104088F809A006F0BBFFAB4A71
:10357000AB49AF4E404607F0A9FDAB4B3B60384628
:10358000AC4B7B603C72FC603C7487F809A006F091
:10359000A9FFA24AA249DFF8DC82384607F096FD6F
:1035A000A14B33603046A44B73603472F4603474C2
:1035B00086F809A006F096FF984A99499F4F304631
:1035C00007F084FD984BC8F8003040469C4BC8F883
:1035D000043088F80840C8F80C4088F8104088F893
:1035E00009A006F07FFF8D4A8D49964E404607F0B0
:1035F0006DFD8D4B3B603846864B7B603C72FC60BA
:103600003C7487F809A006F06DFF844A8449DFF80E
:103610006882384607F05AFD834B3472304686E89C
:103620000808F460347486F809A006F05BFF7B4A52
:103630007B49854F304607F049FD7C4BC8F8043084
:10364000824BC8F8003040464FF0020388F809303A
:1036500088F80840C8F80C4088F8104006F042FF8F
:103660006E4A6F497A4E404607F030FD714B7B60E1
:10367000764B3B6038464FF002037B72FC603C7433
:1036800087F808A006F02EFF644A6549DFF8EC8150
:10369000384607F01BFD6D4B3360674B7360304657
:1036A0004FF0020373723472F460347406F01AFF40
:1036B0005A4A5B49674F304607F008FD604BC9F82E
:1036C0000430624BC9F8003048464FF0020389F8D5
:1036D0000930C9F80C4089F8104089F808A006F0B4
:1036E00001FF4E4A4E495C4B0193484607F0EEFC01
:1036F000484BC8F80430554BC8F8003040464FF0EE
:10370000020388F8093088F80840C8F80C4088F8A7
:10371000104006F0E7FE414A4149504EDFF8609103
:10372000404607F0D3FC494BFC6087E80808384660
:103730004FF002037B723C7487F808A006F0D2FEBB
:10374000364A3749DFF83C81384607F0BFFC374B33
:103750007360314B336030464FF003037372347241
:10376000F460347406F0BEFE2D492C4A3C4F3046BE
:1037700007F0ACFC019B2F4A5A60274A1A60184692
:103780004FF003025A72DC601C7483F808A006F044
:10379000A9FE019B214A2249324E1846324B019321
:1037A00007F094FC244BC9F80430304BC9F80030C2
:1037B00048464FF0030389F8093089F80840C9F8F2
:1037C0000C4089F8104006F08DFE144A1449484612
:1037D00007F07CFC1A4BC8F80430244BC8F80030C2
:1037E00040464FF0030388F80930C8F80C4088F8C9
:1037F000104088F808A006F075FE084A0849DFF86E
:103800008890404607F062FC024B7B60174B3B60A0
:1038100038463BE080D3FF1F60CFFF1F74BEFF1F01
:10382000A10C0000F8D0FF1F7CE6FF1FE4E5FF1F9E
:1038300044DCFF1FDCCCFF1F1CE6FF1F1CE8FF1F42
:1038400024CCFF1F54D6FF1F28D6FF1FA0E8FF1F60
:1038500058DCFF1FA8D6FF1F3CD6FF1FC4CCFF1F9C
:1038600048CFFF1FBCD6FF1F5CD2FF1FC8E5FF1F5C
:10387000B4E5FF1F48E8FF1FB0CCFF1F34CFFF1F88
:1038800054E6FF1F70E8FF1FA4D0FF1F4FF0030393
:103890007B723C72FC603C7406F024FEAB4AAC497F
:1038A000DFF80883384607F011FCAA4B3360304636
:1038B0004FF003037372C6F804B0F460347486F8F2
:1038C00008A006F00FFE3046A04AA149A24EDFF83C
:1038D000E0B2A24F07F0FAFB019B514603F58E724E
:1038E0001846FEF7DFFA9E4B03F58E721846019BD1
:1038F00051461C835C831E60FEF7D4FA984B89F80E
:10390000094048461C835C831E60019BC9F8043053
:10391000C9F80C4089F81040C9F8005089F808A08F
:1039200006F0E0FD894A8A49484607F0CFFB4FF090
:103930000203404688F80830894BC8F8043088F8FC
:103940000940C8F80C4088F81040C8F8005006F04C
:10395000C9FD7E4A7E49DFF81C92404607F0B6FB5F
:1039600051460BF58E725846FEF79CFA7D4BABF82C
:10397000184003F58E7251461846ABF81A40CBF842
:103980000060FEF78FFA774B7C721C835C833846AD
:103990001E60754B3B60FC603C74C7F804B087F850
:1039A00008A006F09FFD694A6949384607F08EFB7A
:1039B0006E486C4B43606C4B03604FF00203037224
:1039C0004472C460047406F08DFD604A6049674823
:1039D00007F07CFB4FF0020109F1180289F8091089
:1039E0006349C9F80010234689F80840C9F80C401B
:1039F0002146C9F810204C4600E0226942F8231005
:103A000099F809205B4801339A42F6DC5A4B1A6850
:103A10000AB90BE11A465369002BFBD1C2F8149086
:103A20000024564E564B5348C9F81440A9F8044098
:103A3000A9F8064089F80A40C9F8003007F07AF979
:103A4000504B514D3472304686E808027472F4606F
:103A5000347406F047FD3E493C4A304607F036FBD9
:103A60004A4A4B4E2C72012328466B7285E80402A9
:103A7000EC602C7406F036FD2846344A34493C4D3F
:103A800007F024FB022006F1180223462146347277
:103A9000F460356070723261344600E0226942F8A9
:103AA0002310727A3A4801339A42F7DC324B1A6893
:103AB0000AB9BDE01A465369002BFBD156610025B7
:103AC000344C354B32487561B580F580B572336042
:103AD00003F0EEF9314B324F2572204684E848005E
:103AE0006572E560257406F0FDFC184A1849204609
:103AF00007F0ECFA2B4B2C4C3D724FF00108384686
:103B000087E84800FD603D7487F8098006F0EAFC0C
:103B10000E4A0F49384607F0D9FA1549216004F1D9
:103B200018022B462572E560294684F80980226137
:103B3000254600E02A6942F82310627A1A480133C8
:103B40009A42F7DC0C4B1A68AABB73E074BEFF1FE5
:103B5000A10C0000C8E5FF1F2414010068E6FF1F48
:103B600014CEFF1FCCD3FF1F0CD1FF1FE4D0FF1FCB
:103B7000B802010060CCFF1F74F2FF1FB8D3FF1F13
:103B8000B8170100E4E5FF1F48D7FF1FDCCCFF1F7B
:103B9000BCE6FF1F5CD7FF1F6C1501001CE6FF1F72
:103BA00088E8FF1F24CCFF1F70D7FF1FB8D0FF1F6E
:103BB00078CFFF1F1A465369002BFBD154610026B2
:103BC0001D4D1E4B1E486661A680E680A6722360CE
:103BD00002F062FF1B4B2E72284685E818006E72B9
:103BE000EE602E7406F07EFC1749184A284607F04E
:103BF0006DFA174B174A1A600A221A7204F0A4FFD2
:103C0000154B186003B0BDE8F08F144B1960FFF737
:103C100026B9134A1A60FFF73FB91F60FFF758B97A
:103C20001860FFF7CAB91860FFF7A5BA1860F7E681
:103C3000186044E71860C2E78CD7FF1F60150100C9
:103C400070D7FF1F80D3FF1FA10C000074BEFF1FA1
:103C500098D0FF1FF402010030E8FF1F74F2FF1F2D
:103C6000C8E5FF1F10B4A0B1B0F9043000F58271AF
:103C7000821D93B991420CD9B0F9064000F10803B6
:103C800024B11CE032F9024BD4B9134699421A46CA
:103C9000F8D86FF07F0010BC704791420CD9B0F992
:103CA000064000F1080324B911E032F9024B7CB15F
:103CB000134699421A46F8D8802010BC7047134624
:103CC0000430181A4010404200B210BC704713462E
:103CD00004301B1A43F34F0010BC70472DE9F04F1E
:103CE00000268FB0044600F25D4835464FF0FF379E
:103CF0003146204606F0C8FB09AB0FFA86F943F8B7
:103D00002600FFF7AFFF803004EB070205F1010347
:103D10000AD0791C1DB200F0998192F85D2498F8C0
:103D200000309A4238BF4F460136052E08F101088F
:103D3000DED1B4F91860002EC0F2A682002D40F04A
:103D40008D8132460EAB03EB820353F8147C002FB7
:103D500000F09E83BE4B0293B3F93430002B40F049
:103D6000C581224492F86234002B40F0BF81B4F93F
:103D70001860B4F91E800EAB03EB8602334652F88E
:103D8000147C002EC0F28782234493F858A44FEA93
:103D90004A1A0AF18203B3F59C7F40F3E082029B4A
:103DA000B3F904010AF1830B0AF189090AF18F0AB8
:103DB00007F0DCFEA74907F02DFF08F0F1F8BBF58E
:103DC0009C7F844640F37882029BBAF59C7FB3F9CE
:103DD0000631059340F37B82029BB9F59C7FB3F9D2
:103DE0001E31049340F37E82029BE045B3F9123109
:103DF000039300F081820023A4F81EC06362236253
:103E0000C4F83832C4F83432C4F84032C4F83C3212
:103E1000C4F85434C4F85034A3836383BCF1000F56
:103E200040F0AC826346002F00F0DE824FF00009C4
:103E30004D46D4F85084721C00F0B7820EAA02EBF3
:103E4000860656F8146C002E00F0AF82043606F594
:103E5000807701204FF0FF3E424631E0B4F91C105C
:103E6000002940F361810139002BA18300F05081CA
:103E700080F24281013BC4F83432D4F83032C9EBCD
:103E80000505AB42B8BF2B46C4F83032002A40F0DB
:103E90004281D4F83C32D4F84012C4F85004D4F82B
:103EA0004C245B1A9342B8BF1346C4F84C34B74253
:103EB00036D0D4F83432256AD4F82490D4F850247B
:103EC00036F9021B0029C9D0002BA4F81CC000F051
:103ED0004F81C0F241810133C4F83432D4F830123A
:103EE000C9EB0505A942B8BF2946C4F83012002A1B
:103EF00040F04181D4F83C32D4F84012C4F8500468
:103F0000D4F84C245B1A9342B8BF1346C4F84C341F
:103F1000B4F91C30002BCADD013BB742A383C8D1E2
:103F200006F01AFA0546069006F016FA0790002DDC
:103F30007AD0002875D02E1D05F582754FF0000847
:103F4000AE4200F1040AC14661D2D4F8383283B9D6
:103F5000636A216A994200F0888103F07F0004EBD4
:103F60008000591C836AC4F838326162002B00F06B
:103F7000EC81002BC0F26881374F013BC4F8383226
:103F8000BB460121D4F85434A3B9D4F84002D4F884
:103F90003C32834200F05F8100F07F0304EB830337
:103FA0000130D3F84432C4F85434C4F84002002B32
:103FB00000F0C381002BC0F24281013BC4F85434AD
:103FC0000120002900F03281039807F0CFFD21493C
:103FD00007F020FE07F0E4FF049B03FB00F30598C5
:103FE000019307F0C3FD1B4907F014FE07F0D8FF4B
:103FF000019B19499842B8BF184660830B4626F8C2
:10400000027BB542D9442AF8021B98449DD8B4F9E2
:104010001830002B05DB029AB2F93220002A40F05A
:104020007381069806F0ECF9079B13B1184606F069
:10403000E7F909AD0EAC55F8043B18460BB106F094
:10404000DFF9A542F7D10FB0BDE8F08F4F466BE620
:104050006CDCFF1F797830420080FFFFA219E11964
:1040600092F85D0491F85D1488423B4632467FF633
:1040700069AE0EAA02EB87024FF6FF7152F8147C6C
:104080002383E183002F00F09581B7F904202AB340
:1040900006F062F90646002800F08981B4F918306C
:1040A0000EAA02EB8303043053F8141C4FF4807201
:1040B000043104F0F3F8B4F918300EAA02EB8303CC
:1040C000002253F8140CB28006F09AF9B4F91830B3
:1040D0000EAA02EB8302374642F8146C1A46BE4B16
:1040E0000293B3F93430002B3FF43BAE3946002243
:1040F000204606F0AFF93AE6691C494500F04F81C9
:1041000005F07F0504EB850821620D46C8F82830CC
:10411000C4F834E2B1E650DB0132C4F85024D4F8DC
:104120003C32D4F84012BAE6002B3AD02CDA013BEC
:10413000C4F83432D4F83032C9EB05059D42B8BF1B
:104140001D46C4F83052002A2ED1C4F850E4D4F8E9
:104150003C32D4F84012A2E6691C494500F0A48123
:1041600005F07F0504EB850821620D46C8F828306C
:10417000C4F83402B2E633DB0132C4F85024D4F878
:104180003C32D4F84012BBE605F10108C84500F006
:10419000918105F07F0504EB8501C4F82080454638
:1041A0008B62C4F834E2C5E72DDA013AC4F8502432
:1041B000D4F83C32D4F8401271E6D4F83C52D4F82A
:1041C00040126B1C994200F0E48005F07F0504EB7F
:1041D0008505C4F83C32C5F84422C4F850045EE6B4
:1041E000D4F83C52D4F840126B1C994200F056812E
:1041F00005F07F0504EB8505C4F83C32C5F8442280
:10420000C4F850047CE6D4F83C52D4F840126B1C3D
:10421000994200F0BE8005F07F0504EB8505C4F8E7
:104220003C32C5F84422C4F850E438E6B4F91A30F8
:10423000002B24DD6949013B63830B46DFE6013334
:10424000C4F854340020BCE600270133C4F83832E7
:10425000BB46394696E6D4F85034002B6DD0002288
:10426000C4F85434C4F85024A4E6D4F83432002BF3
:104270006BD00022C4F83832C4F8342279E6C1B2D7
:10428000C90309B20B46BAE6002D3FF4D2AE3A4656
:1042900027833E4656E5029BB3F9040107F066FC0E
:1042A0004F4907F0B7FC07F07BFE4FF08F0A8446BA
:1042B0004FF089094FF0830B029B33F91B300593B4
:1042C000002BFFF681ADBAF59C7F3FF785AD029BD1
:1042D00033F91A300493002BFFF67EADB9F59C7FBD
:1042E0003FF782AD029B33F919300393002BFFF6A1
:1042F0007BADE0457FF47FAD002F61D0256AD4F817
:104300002490D4F8343294E5234493F86234002B9B
:104310007FF487AEB9F1000F09D1B8F1000F3FF477
:1043200080AE20460222079906F094F879E6012231
:104330000699204606F08EF8EFE7D4F848340133AA
:10434000C4F848344FF0FF303BE6D4F82C32234F0A
:104350000133C4F82C32BB464FF0FF3112E6029A0B
:1043600032F913001C4B00280AF1830B0AF189096A
:10437000B8BFB3F904010AF18F0A19E5D4F8303255
:1043800023EAE372CCF10003C4F83022C4F83432DB
:1043900049E5D4F844340133C4F8443487E5D4F80B
:1043A00028320133C4F8283270E50E4E4FE5B4F9D7
:1043B0001860C6E4084A02921E464FF0FF38E0E457
:1043C000B4F91C30002B7BD0256AD4F82490D4F8A3
:1043D0003432D4F850842EE56CDCFF1F0080FFFFE0
:1043E00079783042281401003D46B946D4F8382285
:1043F000002A70D03FF71DADA94570D1002B40F3C6
:104400009480D4F82490002ABFF613ADD4F85474E5
:10441000002F28D1D4F85084B8F1000F27D1D4F858
:104420003CB2D4F8402293452DD002F07F0104EB3A
:104430008101D1F844E2BEF1000F3FF7FCAC01323C
:1044400002F07F0177445A4504EB8101C4F85474AB
:1044500002F1010060D0D1F844E2BEF1000F60DD4E
:10446000C4F84022E7E43FF7E4ACD4F85084D4F831
:104470003CB2D4F840225A45D7D1B8F1000F5DDDE7
:10448000002FBFF6D8AC4FF6FF7222832F4EDEE42A
:1044900013462F4AB4F91E80029272E4D4F84434D1
:1044A0000133C4F8443433E5D4F828320133C4F876
:1044B00028321CE5D4F828320133C4F8283242E609
:1044C000B4F91A20256AD4F82490D4F83432002A9A
:1044D0007FF4AFAC8AE7002B8ED1A94596D009F0C6
:1044E0007F0104EB8101896A00293FF7A2AC09F141
:1044F000010909F07F000A44A94504EB8000C4F8D3
:10450000382209F101070AD0816A00290BDDC4F8BD
:104510002490D4F850848EE4C4F84022ADE765625C
:104520006CE702468CE7B946E3E71A440023D4F867
:104530002490C4F83822C4F8343264E74744002297
:10454000C4F85474C4F85024904699E72814010024
:104550006CDCFF1F2DE9F043044687B0002105F015
:104560009FFFA369002B054608DD013BA3610028DE
:1045700055D007B0BDE8F04305F042BF00284ED04B
:10458000071D00F58276B7426AD2BE460023BEF907
:104590000000BEF90210BEF90490BEF90620BEF973
:1045A0000880BEF90AC01844084409EB0001114410
:1045B000BEF90C000EF1100E08EB010262443EF948
:1045C000021C8318B6450B44E1D3002BB8BF7F33E0
:1045D000DB110021DFF88CE0884601A83EF9022FAC
:1045E0009A1A002AB8BF52420DF1180C0CEB880C35
:1045F00040F8042B5CF814CC6245B8BF8846013102
:104600000529EBD1227F637F90450BD02846237785
:1046100084F81D8007B0BDE8F04305F0F1BE07B097
:10462000BDE8F0839845F1D1B8F1000FEED0B74264
:1046300038BF4FF400430BD23B807B80BB80FB80B4
:104640003B817B81BB811037BE4227F8023CF3D807
:10465000013AD2B22946204605F0FCFE637FD5E739
:104660000023B6E78ADCFF1F2DE9F04F8369624D16
:104670005B018E33B3F59C7F87B0044640F28E8099
:10468000B5F91C31032B06D8DFE803F0A9A58E028B
:1046900004F16003A3620021204605F0F5FE0490BA
:1046A000002800F08C80071D0121204605F0ECFE5B
:1046B0000590002800F08C8000F1040805F04CFE05
:1046C000A36903905B0103F18602B2F59C7F60D978
:1046D000B5F90C218533B3F59C7F55D9B5F90A316D
:1046E0000399002942D00D1D01F5827B5D453AD228
:1046F00003EB4303DB0002EB42020193DFF800917E
:1047000013010293002638F802EB37F8021B227FD0
:10471000A06A4FEAEE3EC9134FEA4E034FEA410C3E
:104720006144734403EB4103019902EB420201EB44
:1047300082021344029A134409EB030119F803306F
:10474000237703688A78D3F800A049780123D047FB
:10475000C00300F4FF0000B225F8020BAB4506448D
:10476000D1D8002E3FD1039805F04AFE049B13B127
:10477000184605F045FE059B002B3AD0184607B0B9
:10478000BDE8F04F05F03CBE35F91330002BA7DA39
:10479000A4E735F91220002A9CDA99E735F913309D
:1047A000002BBFF66FAF6BE704F14C03A36200214F
:1047B000204605F069FE049000287FF474AF0121C3
:1047C000204605F061FE0D4F059000287FF474AF80
:1047D000DFF8288072E704F13C03A3625BE704F191
:1047E0002C03A36257E720460022039905F032FE0E
:1047F000B9E707B0BDE8F08F6CDCFF1F281401009B
:10480000681301002DE9F84F436A046A7F2B804644
:1048100009D9B0F91820C461803B4362002A40F0F6
:10482000AC80BDE8F88F05F097FD07460028F8D06A
:1048300000F1040E00F58279A4F1800ACE45C8F893
:104840001CA080F0C780D446002558FA8CF30CF1E8
:10485000010293F8286058FA82F2F603AEF800607D
:1048600092F828400CF10203E40358FA83F3AEF8FF
:10487000024093F828000CF10303C00358FA83F3B5
:10488000AEF8040093F828100CF10403C90358FA99
:1048900083F3AEF8061093F828200CF10503D20339
:1048A00058FA83F3AEF8082093F828B00CF1060309
:1048B0004FEACB3B58FA83F3B6B2AEF80AB02E44B7
:1048C000A4B293F82830A51980B244190CF1070559
:1048D000DE0358FA85F5AEF80C6089B2081992B279
:1048E00095F8284011181FFA8BF35A180EF1100E84
:1048F000E103B3B213448DB2F1452EF8021C1D44FE
:104900000CF1080CA1D8C7EB0903053B0AF1080A12
:104910001B09B8F918200AEBC303C8F81C30AAB366
:10492000BB1D00202E4E0AE0B8F81820C8F824401D
:10493000104423F8022C894503F1020317D9D8F853
:1049400024201946541E002AEED133F8022CB8F95F
:104950001850AA4214B223D0A8F81840B6F93C2047
:10496000C8F824208945204403F10203E7D858BB46
:104970003846BDE8F84F05F043BD1A4C216889B1AF
:1049800040460022BDE8F84F05F064BD002DC7D1B8
:1049900000233846C8F82430BDE8F84F05F030BD94
:1049A0001044C8E705F0D8FC014620600028E7D095
:1049B000031D00F582729342E2D24FF4004023F8C7
:1049C000020B9A42FBD8DBE740460022394605F04D
:1049D00041FDCDE7B8F91830002BD9D0C8E700BFAA
:1049E0006CDCFF1F8CEDFF1F2DE9F84F436A044676
:1049F000002B72D0B0F92C30C64E002B11DDE569CA
:104A0000002D15DB20D0A36A4FF40042991CA1624F
:104A10001A80A38D013B1BB2013D002BE561A385EC
:104A2000EDDC616AA26A0B1D9A424FD1BDE8F88F96
:104A3000A36A0022991CA1621A80A38D013B013553
:104A40001BB2E561A385D8E794F83F3094F83E2087
:104A50009A420ED01D4604EB45030135B3F92E30C2
:104A6000E36105F0070584F83F50E3B1B4F92C3059
:104A7000C3E7FDF775FAC0B2002800F08980A3698A
:104A8000984200F0858084F8415484F8405484F8BA
:104A9000215084F83F5084F83E50C4F84454C4F880
:104AA00048540023E361616AA26A0B1D9A42BDD09B
:104AB000B4F92C30002B09DD002022F8020BA38D65
:104AC000013B1BB2002BA385F7DCA262204600222B
:104AD00005F0C0FC606A05F093FC05F03DFC6062E7
:104AE0000028A3D004308023A062A385894E0EE065
:104AF0001CD0A36A4FF40042991CA1621A80A38DB6
:104B0000013B013D1BB2E561A385002B8EDDE5690C
:104B1000002DEDDAA36A0022991CA1621A80A38DF0
:104B2000013B01351BB2E561A385EEE794F83F3008
:104B300094F83E209A4211D09B4604EB4B020BF1B5
:104B40000103B2F92E20E26103F0070384F83F303D
:104B5000002A00F01485B4F92C30D6E7FDF700FAEE
:104B6000C0B2002866D0A369984263D084F841544B
:104B700084F8405484F8215084F83F5084F83E5023
:104B8000C4F84454C4F848540023E361BDE8F88FE6
:104B900094F82180B8F1010F40F2CB80A36918F09E
:104BA000010F4FEA431A00F093800AF18A03B3F52C
:104BB0009C7F40F2A780574FB7F9140106F0D6FF4B
:104BC000554907F027F807F0EBF994F83E9094F870
:104BD0003F5009F1010303F00703AB4200B200F0BC
:104BE000858104EB490203F1010BD085994684F8D5
:104BF0003E300BF0070B0AF18B0ABAF59C7F40F2AE
:104C00008D80B7F9160106F0B1FF434907F002F8AD
:104C100007F0C6F95D45C0F1000000B205D004EB15
:104C20004909A9F82E0084F83EB04FEA680884F8D4
:104C3000218010E794F82180B8F1010F40F2E8805C
:104C4000A56918F0010F4FEA45154AD105F189030E
:104C5000B3F59C7F40F24E812E4FB7F9120106F05A
:104C600085FF2D4906F0D6FF07F09AF994F83E909B
:104C700094F83FB009F1010202F007025A4500B270
:104C800000F0368104EB490102F1010AC885914622
:104C900084F83E200AF0070A8B35B5F59C7F43D98E
:104CA000B7F9160106F062FF1B4906F0B3FF07F0E3
:104CB00077F9D345C0F1000000B204D004EB4902FB
:104CC000D08584F83EA04FEA680884F8218034E754
:104CD0000AF18903B3F59C7F0DD90E4FB7F9120184
:104CE0006CE705F18A03B3F59C7F40F20A81094F16
:104CF000B7F91401B3E736F91300064F0028BFF6E1
:104D00005DAFEBE736F91300024F0028BFF656AF50
:104D100052E700BF6CDCFF1F7978304237F91A0088
:104D20000028BFF670AF6CE737F915000028B9DA34
:104D3000B6E700F0258294F8402494F841349A4272
:104D40003FF4AFAEFDF70CF9C0B2002800F0E080F0
:104D5000A369984200F0DC800022B94F84F8412416
:104D600084F8402484F83F2084F83E20E261C4F8AF
:104D70004424C4F84824FE2237F912905FFA89F2DD
:104D8000D10784F8212000F1FC834FEA431808F191
:104D90008903B3F59C7F40F2CB83B7F9120106F08B
:104DA000E5FEA84906F036FF07F0FAF8C9F3460910
:104DB00000B294F83E2094F83F50531C03F00703D0
:104DC000AB4200F0B38304EB420103F1010AC88552
:104DD0001A4684F83E300AF0070A08F18B03B3F54F
:104DE0009C7F40F2DF82B7F9160155450DD0143291
:104DF00004EB420706F0BAFE924906F00BFF07F0FB
:104E0000CFF84042F88084F83EA084F8219022E652
:104E100000F0FA8194F8402494F841349A423FF427
:104E2000B3AEFDF79DF8C0B2002800F00D81A36974
:104E3000984200F009810022814F84F8412484F8CF
:104E4000402484F83F2084F83E20E261C4F84424E2
:104E5000C4F84824FE2237F912805FFA88F284F8F9
:104E60002120D20700F194845D0105F18903B3F597
:104E70009C7F40F24F83B7F9120106F077FE71492B
:104E800006F0C8FE07F08CF8C8F3460800B294F8A4
:104E90003E2094F83FB0511C01F00701594500F045
:104EA000378304EB420E01F10109AEF82E000A46E9
:104EB00084F83E1009F007098B35B5F59C7F40F268
:104EC0008782B7F91601CB450DD0143204EB4205A9
:104ED00006F04CFE5B4906F09DFE07F061F840428B
:104EE000E88084F83E9084F8218026E6AB4682E68E
:104EF000DA46D1E636F91300514F0028BFF6AFAEBF
:104F0000ABE636F913004E4F0028BFF6A8AEEFE629
:104F1000D4F84434002B00F011830027FDF720F86B
:104F2000C0B2B0B3A369984233D094F8413494F836
:104F300040249A4200F0AB815A1C234484F8412457
:104F400093F8402094F83F50202A40F01D83A36935
:104F50005B018D33B3F59C7F40F2FA82384FB7F98D
:104F60001A0194F83E3003F1010808F00708A8453B
:104F70003FF471AD143304EB430706F0F7FD3149FC
:104F800006F048FE07F00CF84042F88084F83E80B6
:104F900061E594F8402494F84134511C9942C8D0FA
:104FA000D4F848341A780AB9D4F844345A1CC4F8EE
:104FB00048241D78FCF7D4FFC0B290B1A369984291
:104FC0000FD084F8417484F8407484F8217084F818
:104FD0003F7084F83E70E761C4F84474C4F84874C4
:104FE0009CE7A5F16103192B25D9202D0ED0A5F141
:104FF0000903012B22D91B2D08D0A5F121033F2B3A
:105000008CD86B1E36F91330012B87D0FCF7A8FF24
:10501000C0B210B1A369984280D194F8403494F89A
:1050200041145A1C8A423FF479AF234483F840501C
:1050300084F8402472E7203DEDB2E7E72025E5E75C
:105040006CDCFF1F79783042D4F84434002B00F038
:1050500089820027FCF784FFC0B2C8B3A3699842D5
:1050600036D094F8413494F840249A4200F0B68146
:105070005A1C234484F8412493F8402094F83F308C
:10508000202A40F08883A26952018D32B2F59C7FBC
:1050900000F23A8236F91200CB4F0028C0F2358276
:1050A00094F83E20571C07F007079F429B463FF4A9
:1050B00044AD143204EB420506F058FDC34906F036
:1050C000A9FD06F06DFF4042E88084F83E7034E5AB
:1050D00094F8402494F84134511C9942C5D0D4F836
:1050E00048341A780AB9D4F844345A1CC4F848240D
:1050F0001D78FCF735FFC0B290B1A36998420FD07C
:1051000084F8417484F8407484F8217084F83F7006
:1051100084F83E70E761C4F84474C4F8487499E7B1
:10512000A5F16103192B26D9202D0ED0A5F1090375
:10513000012B23D91B2D08D0A5F121033F2B89D8A2
:105140006B1E36F91330012B84D0FCF709FFC0B277
:1051500018B1A36998427FF47DAF94F8403494F875
:1051600041145A1C8A423FF475AF234483F84050DF
:1051700084F840246EE7203DEDB2E6E72025E4E721
:1051800094F82030002B40F01981A3695B0103F1F2
:105190008B02B2F59C7F00F2AA8136F912008A4F89
:1051A0000028C0F2A5818C33B3F59C7F00F2E48126
:1051B00037F913A0BAF1000FC0F2DE8194F83E3047
:1051C00094F83F5003F1010808F00708A84517D0EC
:1051D000143304EB430706F0C9FC7C4906F01AFDC2
:1051E00006F0DEFE8146504606F0C0FC774906F028
:1051F00011FD06F0D5FEC0EB0900F88084F83E8072
:10520000002384F8213026E494F82030002B40F06D
:10521000CF80A3695B0103F18B02B2F59C7F00F2A2
:105220006F8136F91200684F0028C0F26A818C3312
:10523000B3F59C7F00F2938137F91390B9F1000F19
:10524000C0F28D8194F83E2094F83FB0571C07F0CF
:1052500007075F4517D0143204EB420506F086FCC1
:105260005A4906F0D7FC06F09BFE8046484606F0F9
:105270007DFC564906F0CEFC06F092FEC0EB08001D
:10528000E88084F83E70002284F8212055E4D4F8A8
:105290004434002B00F059814B4F4FF00008FCF7CD
:1052A0005FFEC0B218B1A36998427FF464AD94F870
:1052B000403494F841240133934252D0D4F8483416
:1052C0001A780AB9D4F844345A1CC4F848241D7812
:1052D000FCF746FEC0B2C0B1A369984215D084F86D
:1052E000418484F8408484F8218084F83F8084F8E5
:1052F0003E80C4F81C80C4F84484C4F84884FCF799
:105300002FFEC0B20028D2D0CDE7A5F16103192B42
:1053100024D9202D0ED0A5F10903012B40D91B2D36
:1053200008D0A5F121033F2BB9D86B1E36F91330F5
:10533000012BB4D0FCF714FEC0B210B1A36998429F
:10534000ADD194F8403494F841145A1C8A42A6D046
:10535000234483F8405084F84024A0E7203DEDB278
:10536000E8E7FF22013AB2F59C7FA3697FF604AD1E
:10537000FF2284F821204FF07F094FEA431808F1FB
:105380008A03B3F59C7F40F2CB80B7F9140106F095
:10539000EDFB0E4906F03EFC06F002FE00B208E509
:1053A0002025C7E737F913000028BFF61EAD1AE520
:1053B000002384F8203084F821302BE5002384F882
:1053C000203084F82130B6E46CDCFF1F797830425D
:1053D00037F915000028BFF676AD72E5D4F84434ED
:1053E000002B00F0C680AC4F4FF00008FCF7B8FD72
:1053F000C0B218B1A36998427FF42CAD94F8403440
:1054000094F841240133934252D0D4F848341A78A6
:105410000AB9D4F844345A1CC4F848241D78FCF75F
:105420009FFDC0B2C0B1A369984215D084F84184F1
:1054300084F8408484F8218084F83F8084F83E809A
:10544000C4F81C80C4F84484C4F84884FCF788FD80
:10545000C0B20028D2D0CDE7A5F16103192B24D921
:10546000202D0ED0A5F10903012B3ED91B2D08D00C
:10547000A5F121033F2BB9D86B1E36F91330012B50
:10548000B4D0FCF76DFDC0B210B1A3699842ADD1A4
:1054900094F8403494F841145A1C8A42A6D023440C
:1054A00083F8405084F84024A0E7203DEDB2E8E7BF
:1054B000FF22013AB2F59C7FA3697FF6CCACFF22B4
:1054C00084F821204FF07F085D0105F18A03B3F5D0
:1054D0009C7F10D9B7F9140106F048FB6F4906F01C
:1054E00099FB06F05DFD00B2D1E42025C9E76A4FC3
:1054F000B7F9160157E637F913000028ECDAE9E7A7
:10550000654FB7F9160192E6634FB7F91A01C7E57F
:10551000D946D1E436F913000028BFF6AEACAAE4B0
:1055200037F913000028BFF632AF2EE7AA4654E43D
:1055300036F913000028BFF632AC2EE494F841345B
:1055400094F840249A427FF4F7ACA369524F12E4D6
:1055500036F91300504F0028BFF603ADFFE4B7F94A
:1055600018916FE694F8413494F840249A427FF4FD
:105570007FADA369484F6DE4B7F918A11EE6BDE8F9
:10558000F88FC9F34609F8E61B2A40F0FF8094F82B
:10559000402494F8413401219A4284F820103FF4C9
:1055A00080AAFCF7DDFCC0B218B1A36998427FF471
:1055B000D3ABD4F84434002B00F0DF80364F4FF0EB
:1055C0000008FCF7CDFCC0B278B1A36998420CD0BA
:1055D00094F8413494F84024934261D05A1C2344F7
:1055E00084F8412493F84020BCE694F8402494F8D1
:1055F0004134511C9942EFD0D4F848341A780AB992
:10560000D4F844345A1CC4F848241D78FCF7A8FC8C
:10561000C0B298B1A369984210D084F8418484F84C
:10562000408484F8218084F83F8084F83E80C4F868
:105630001C80C4F84484C4F84884C2E7A5F161031F
:10564000192B24D9202D0ED0A5F10903012B21D926
:105650001B2D08D0A5F121033F2BB2D86B1E36F9C4
:105660001330012BADD0FCF77BFCC0B210B1A369A5
:105670009842A6D194F8403494F841145A1C8A42B6
:105680009FD0234483F8405084F8402499E7203D7C
:10569000EDB2E8E72025E6E76CDCFF1F79783042C1
:1056A000D4F84434002B63D04FF00008FCF758FCCA
:1056B000C0B218B1A36998427FF45DAB94F840344E
:1056C00094F841240133934252D0D4F848341A78E4
:1056D0000AB9D4F844345A1CC4F848241D78FCF79D
:1056E0003FFCC0B2C0B1A369984215D084F8418490
:1056F00084F8408484F8218084F83F8084F83E80D8
:10570000C4F81C80C4F84484C4F84884FCF728FC1E
:10571000C0B20028D2D0CDE7A5F16103192B24D95E
:10572000202D0ED0A5F10903012B24D91B2D08D063
:10573000A5F121033F2BB9D86B1E36F91330012B8D
:10574000B4D0FCF70DFCC0B210B1A3699842ADD142
:1057500094F8403494F841145A1C8A42A6D0234449
:1057600083F8405084F84024A0E7203DEDB2E8E7FC
:10577000A369FFF700BB2025E3E794F8413494F8D0
:1057800040249A423FF4E1AE824F27E7814FE9E59A
:10579000C8F3460898E61B2A40F08D8094F8402410
:1057A00094F8413401219A4284F820103FF4ECA986
:1057B000FCF7D6FBC0B218B1A36998427FF43BABAB
:1057C000D4F84434002B6DD0724F4FF00008FCF732
:1057D000C7FBC0B278B1A36998420CD094F84134A9
:1057E00094F840249A4268D05A1C234484F84124F7
:1057F00093F840205DE694F8402494F84134511C1D
:105800009942EFD0D4F848341A780AB9D4F844341D
:105810005A1CC4F848241D78FCF7A2FBC0B298B10A
:10582000A369984210D084F8418484F8408484F8B5
:10583000218084F83F8084F83E80C4F81C80C4F83E
:105840004484C4F84884C2E7A5F16103192B24D924
:10585000202D0ED0A5F10903012B21D91B2D08D035
:10586000A5F121033F2BB2D86B1E36F91330012B63
:10587000ADD0FCF775FBC0B210B1A3699842A6D1B8
:1058800094F8403494F841145A1C8A429FD023441F
:1058900083F8405084F8402499E7203DEDB2E8E7D2
:1058A0002025E6E794F8413494F840249A423FF4E6
:1058B00060AE384F98E7374FFBE5D4F84434002BFF
:1058C00063D04FF00008FCF74BFBC0B218B1A369DE
:1058D00098427FF4BFAA94F8403494F841240133ED
:1058E000934252D0D4F848341A780AB9D4F84434E0
:1058F0005A1CC4F848241D78FCF732FBC0B2C0B172
:10590000A369984215D084F8418484F8408484F8CF
:10591000218084F83F8084F83E80C4F81C80C4F85D
:105920004484C4F84884FCF71BFBC0B20028D2D0E2
:10593000CDE7A5F16103192B24D9202D0ED0A5F1B7
:105940000903012B24D91B2D08D0A5F121033F2BDE
:10595000B9D86B1E36F91330012BB4D0FCF700FB1D
:10596000C0B210B1A3699842ADD194F8403494F814
:1059700041145A1C8A42A6D0234483F8405084F82C
:105980004024A0E7203DEDB2E8E7A369FFF762BA43
:105990002025E3E76CDCFF1FF8B50021044604F086
:1059A00073FD002849D0628B031D013200F5827619
:1059B000D2B2B34222833CD2551C25831F88EDB25C
:1059C0002244691CFF13177721835F88CAB22544DC
:1059D000511CFF132F7721839F88C9B2A518FF138D
:1059E0004A1C2F772283DF88D2B26518FF13511C1F
:1059F0002F7721831F89C9B2A518FF134A1C2F775F
:105A000022835F89D2B26518FF13511C2F7721833F
:105A10009F89A518C9B24A1C1033FF132F77228320
:105A200033F8025C2144D2B2ED139E420D772283FB
:105A3000C2D8BDE8F84004F0E3BC638B0133DBB2AD
:105A40008022E118013A03F101030877DBB2F8D1B3
:105A50002383F8BD2DE9F04F04468BB0002104F0FC
:105A600013FD237E0190012B08D0022B10D0019B47
:105A70005BB10BB0BDE8F04F04F0C2BCDFF880B3FF
:105A8000BBF93430E3B90028F3D10BB0BDE8F08F97
:105A9000DFF86CB3BBF92E30002BE8D004F05CFCCF
:105AA0000546089004F058FC0990002D00F0E981AB
:105AB00070B9019B13B1019804F0A2FC0898D8E7D3
:105AC00004F04AFC0890002800F08E80002309931F
:105AD000019B002B00F0E48103F10408237E08F50C
